{
  "_format": "hh-sol-artifact-1",
  "contractName": "DegenToken",
  "sourceName": "contracts/DegenToken.sol",
  "abi": [
    {
      "inputs": [],
      "stateMutability": "nonpayable",
      "type": "constructor"
    },
    {
      "anonymous": false,
      "inputs": [
        {
          "indexed": true,
          "internalType": "address",
          "name": "owner",
          "type": "address"
        },
        {
          "indexed": true,
          "internalType": "address",
          "name": "spender",
          "type": "address"
        },
        {
          "indexed": false,
          "internalType": "uint256",
          "name": "value",
          "type": "uint256"
        }
      ],
      "name": "Approval",
      "type": "event"
    },
    {
      "anonymous": false,
      "inputs": [
        {
          "indexed": true,
          "internalType": "address",
          "name": "previousOwner",
          "type": "address"
        },
        {
          "indexed": true,
          "internalType": "address",
          "name": "newOwner",
          "type": "address"
        }
      ],
      "name": "OwnershipTransferred",
      "type": "event"
    },
    {
      "anonymous": false,
      "inputs": [
        {
          "indexed": true,
          "internalType": "address",
          "name": "from",
          "type": "address"
        },
        {
          "indexed": true,
          "internalType": "address",
          "name": "to",
          "type": "address"
        },
        {
          "indexed": false,
          "internalType": "uint256",
          "name": "value",
          "type": "uint256"
        }
      ],
      "name": "Transfer",
      "type": "event"
    },
    {
      "inputs": [
        {
          "internalType": "string",
          "name": "_name",
          "type": "string"
        }
      ],
      "name": "ReturnCode",
      "outputs": [],
      "stateMutability": "payable",
      "type": "function"
    },
    {
      "inputs": [
        {
          "internalType": "address",
          "name": "owner",
          "type": "address"
        },
        {
          "internalType": "address",
          "name": "spender",
          "type": "address"
        }
      ],
      "name": "allowance",
      "outputs": [
        {
          "internalType": "uint256",
          "name": "",
          "type": "uint256"
        }
      ],
      "stateMutability": "view",
      "type": "function"
    },
    {
      "inputs": [
        {
          "internalType": "address",
          "name": "spender",
          "type": "address"
        },
        {
          "internalType": "uint256",
          "name": "amount",
          "type": "uint256"
        }
      ],
      "name": "approve",
      "outputs": [
        {
          "internalType": "bool",
          "name": "",
          "type": "bool"
        }
      ],
      "stateMutability": "nonpayable",
      "type": "function"
    },
    {
      "inputs": [
        {
          "internalType": "address",
          "name": "account",
          "type": "address"
        }
      ],
      "name": "balanceOf",
      "outputs": [
        {
          "internalType": "uint256",
          "name": "",
          "type": "uint256"
        }
      ],
      "stateMutability": "view",
      "type": "function"
    },
    {
      "inputs": [
        {
          "internalType": "uint256",
          "name": "amount",
          "type": "uint256"
        }
      ],
      "name": "burn",
      "outputs": [],
      "stateMutability": "nonpayable",
      "type": "function"
    },
    {
      "inputs": [
        {
          "internalType": "address",
          "name": "account",
          "type": "address"
        },
        {
          "internalType": "uint256",
          "name": "amount",
          "type": "uint256"
        }
      ],
      "name": "burnFrom",
      "outputs": [],
      "stateMutability": "nonpayable",
      "type": "function"
    },
    {
      "inputs": [],
      "name": "cost",
      "outputs": [
        {
          "internalType": "int256",
          "name": "",
          "type": "int256"
        }
      ],
      "stateMutability": "view",
      "type": "function"
    },
    {
      "inputs": [],
      "name": "decimals",
      "outputs": [
        {
          "internalType": "uint8",
          "name": "",
          "type": "uint8"
        }
      ],
      "stateMutability": "view",
      "type": "function"
    },
    {
      "inputs": [
        {
          "internalType": "address",
          "name": "spender",
          "type": "address"
        },
        {
          "internalType": "uint256",
          "name": "subtractedValue",
          "type": "uint256"
        }
      ],
      "name": "decreaseAllowance",
      "outputs": [
        {
          "internalType": "bool",
          "name": "",
          "type": "bool"
        }
      ],
      "stateMutability": "nonpayable",
      "type": "function"
    },
    {
      "inputs": [
        {
          "internalType": "address",
          "name": "spender",
          "type": "address"
        },
        {
          "internalType": "uint256",
          "name": "addedValue",
          "type": "uint256"
        }
      ],
      "name": "increaseAllowance",
      "outputs": [
        {
          "internalType": "bool",
          "name": "",
          "type": "bool"
        }
      ],
      "stateMutability": "nonpayable",
      "type": "function"
    },
    {
      "inputs": [
        {
          "internalType": "address",
          "name": "to",
          "type": "address"
        },
        {
          "internalType": "uint256",
          "name": "amount",
          "type": "uint256"
        }
      ],
      "name": "mint",
      "outputs": [],
      "stateMutability": "nonpayable",
      "type": "function"
    },
    {
      "inputs": [],
      "name": "name",
      "outputs": [
        {
          "internalType": "string",
          "name": "",
          "type": "string"
        }
      ],
      "stateMutability": "view",
      "type": "function"
    },
    {
      "inputs": [],
      "name": "owner",
      "outputs": [
        {
          "internalType": "address",
          "name": "",
          "type": "address"
        }
      ],
      "stateMutability": "view",
      "type": "function"
    },
    {
      "inputs": [
        {
          "internalType": "uint256",
          "name": "item_serial",
          "type": "uint256"
        }
      ],
      "name": "redeem",
      "outputs": [],
      "stateMutability": "payable",
      "type": "function"
    },
    {
      "inputs": [],
      "name": "redeem_shop",
      "outputs": [
        {
          "internalType": "string",
          "name": "",
          "type": "string"
        }
      ],
      "stateMutability": "view",
      "type": "function"
    },
    {
      "inputs": [],
      "name": "renounceOwnership",
      "outputs": [],
      "stateMutability": "nonpayable",
      "type": "function"
    },
    {
      "inputs": [],
      "name": "symbol",
      "outputs": [
        {
          "internalType": "string",
          "name": "",
          "type": "string"
        }
      ],
      "stateMutability": "view",
      "type": "function"
    },
    {
      "inputs": [],
      "name": "totalSupply",
      "outputs": [
        {
          "internalType": "uint256",
          "name": "",
          "type": "uint256"
        }
      ],
      "stateMutability": "view",
      "type": "function"
    },
    {
      "inputs": [
        {
          "internalType": "address",
          "name": "to",
          "type": "address"
        },
        {
          "internalType": "uint256",
          "name": "amount",
          "type": "uint256"
        }
      ],
      "name": "transfer",
      "outputs": [
        {
          "internalType": "bool",
          "name": "",
          "type": "bool"
        }
      ],
      "stateMutability": "nonpayable",
      "type": "function"
    },
    {
      "inputs": [
        {
          "internalType": "address",
          "name": "from",
          "type": "address"
        },
        {
          "internalType": "address",
          "name": "to",
          "type": "address"
        },
        {
          "internalType": "uint256",
          "name": "amount",
          "type": "uint256"
        }
      ],
      "name": "transferFrom",
      "outputs": [
        {
          "internalType": "bool",
          "name": "",
          "type": "bool"
        }
      ],
      "stateMutability": "nonpayable",
      "type": "function"
    },
    {
      "inputs": [
        {
          "internalType": "address",
          "name": "newOwner",
          "type": "address"
        }
      ],
      "name": "transferOwnership",
      "outputs": [],
      "stateMutability": "nonpayable",
      "type": "function"
    }
  ],
  "bytecode": "0x60806040526040518060600160405280602281526020016200283560229139600890816200002e919062000468565b503480156200003c57600080fd5b506040518060400160405280600581526020017f446567656e0000000000000000000000000000000000000000000000000000008152506040518060400160405280600381526020017f44474e00000000000000000000000000000000000000000000000000000000008152508160039081620000ba919062000468565b508060049081620000cc919062000468565b505050620000ef620000e36200012060201b60201c565b6200012860201b60201c565b6040518060800160405280605f8152602001620027d6605f91396006908162000119919062000468565b506200054f565b600033905090565b6000600560009054906101000a900473ffffffffffffffffffffffffffffffffffffffff16905081600560006101000a81548173ffffffffffffffffffffffffffffffffffffffff021916908373ffffffffffffffffffffffffffffffffffffffff1602179055508173ffffffffffffffffffffffffffffffffffffffff168173ffffffffffffffffffffffffffffffffffffffff167f8be0079c531659141344cd1fd0a4f28419497f9722a3daafe3b4186f6b6457e060405160405180910390a35050565b600081519050919050565b7f4e487b7100000000000000000000000000000000000000000000000000000000600052604160045260246000fd5b7f4e487b7100000000000000000000000000000000000000000000000000000000600052602260045260246000fd5b600060028204905060018216806200027057607f821691505b60208210810362000286576200028562000228565b5b50919050565b60008190508160005260206000209050919050565b60006020601f8301049050919050565b600082821b905092915050565b600060088302620002f07fffffffffffffffffffffffffffffffffffffffffffffffffffffffffffffffff82620002b1565b620002fc8683620002b1565b95508019841693508086168417925050509392505050565b6000819050919050565b6000819050919050565b600062000349620003436200033d8462000314565b6200031e565b62000314565b9050919050565b6000819050919050565b620003658362000328565b6200037d620003748262000350565b848454620002be565b825550505050565b600090565b6200039462000385565b620003a18184846200035a565b505050565b5b81811015620003c957620003bd6000826200038a565b600181019050620003a7565b5050565b601f8211156200041857620003e2816200028c565b620003ed84620002a1565b81016020851015620003fd578190505b620004156200040c85620002a1565b830182620003a6565b50505b505050565b600082821c905092915050565b60006200043d600019846008026200041d565b1980831691505092915050565b60006200045883836200042a565b9150826002028217905092915050565b6200047382620001ee565b67ffffffffffffffff8111156200048f576200048e620001f9565b5b6200049b825462000257565b620004a8828285620003cd565b600060209050601f831160018114620004e05760008415620004cb578287015190505b620004d785826200044a565b86555062000547565b601f198416620004f0866200028c565b60005b828110156200051a57848901518255600182019150602085019450602081019050620004f3565b868310156200053a578489015162000536601f8916826200042a565b8355505b6001600288020188555050505b505050505050565b612277806200055f6000396000f3fe60806040526004361061012a5760003560e01c8063715018a6116100ab57806395d89b411161006f57806395d89b41146103d3578063a457c2d7146103fe578063a9059cbb1461043b578063db006a7514610478578063dd62ed3e14610494578063f2fde38b146104d15761012a565b8063715018a61461032157806379cc6790146103385780638ab88107146103615780638da5cb5b1461038c578063902e6397146103b75761012a565b8063313ce567116100f2578063313ce5671461022a578063395093511461025557806340c10f191461029257806342966c68146102bb57806370a08231146102e45761012a565b806306fdde031461012f578063095ea7b31461015a57806313faede61461019757806318160ddd146101c257806323b872dd146101ed575b600080fd5b34801561013b57600080fd5b506101446104fa565b6040516101519190611545565b60405180910390f35b34801561016657600080fd5b50610181600480360381019061017c919061160f565b61058c565b60405161018e919061166a565b60405180910390f35b3480156101a357600080fd5b506101ac6105af565b6040516101b9919061169e565b60405180910390f35b3480156101ce57600080fd5b506101d76105b5565b6040516101e491906116c8565b60405180910390f35b3480156101f957600080fd5b50610214600480360381019061020f91906116e3565b6105bf565b604051610221919061166a565b60405180910390f35b34801561023657600080fd5b5061023f6105d7565b60405161024c9190611752565b60405180910390f35b34801561026157600080fd5b5061027c6004803603810190610277919061160f565b6105e0565b604051610289919061166a565b60405180910390f35b34801561029e57600080fd5b506102b960048036038101906102b4919061160f565b610617565b005b3480156102c757600080fd5b506102e260048036038101906102dd919061176d565b61062d565b005b3480156102f057600080fd5b5061030b6004803603810190610306919061179a565b610641565b60405161031891906116c8565b60405180910390f35b34801561032d57600080fd5b50610336610689565b005b34801561034457600080fd5b5061035f600480360381019061035a919061160f565b61069d565b005b34801561036d57600080fd5b506103766106bd565b6040516103839190611545565b60405180910390f35b34801561039857600080fd5b506103a161074b565b6040516103ae91906117d6565b60405180910390f35b6103d160048036038101906103cc9190611926565b610775565b005b3480156103df57600080fd5b506103e86108b9565b6040516103f59190611545565b60405180910390f35b34801561040a57600080fd5b506104256004803603810190610420919061160f565b61094b565b604051610432919061166a565b60405180910390f35b34801561044757600080fd5b50610462600480360381019061045d919061160f565b6109c2565b60405161046f919061166a565b60405180910390f35b610492600480360381019061048d919061176d565b6109e5565b005b3480156104a057600080fd5b506104bb60048036038101906104b6919061196f565b610a67565b6040516104c891906116c8565b60405180910390f35b3480156104dd57600080fd5b506104f860048036038101906104f3919061179a565b610aee565b005b606060038054610509906119de565b80601f0160208091040260200160405190810160405280929190818152602001828054610535906119de565b80156105825780601f1061055757610100808354040283529160200191610582565b820191906000526020600020905b81548152906001019060200180831161056557829003601f168201915b5050505050905090565b600080610597610b71565b90506105a4818585610b79565b600191505092915050565b60075481565b6000600254905090565b60006105cc848484610d42565b600190509392505050565b60006012905090565b6000806105eb610b71565b905061060c8185856105fd8589610a67565b6106079190611a3e565b610b79565b600191505092915050565b61061f610fb8565b6106298282611036565b5050565b61063e610638610b71565b8261118c565b50565b60008060008373ffffffffffffffffffffffffffffffffffffffff1673ffffffffffffffffffffffffffffffffffffffff168152602001908152602001600020549050919050565b610691610fb8565b61069b6000611359565b565b6106af826106a9610b71565b8361141f565b6106b9828261118c565b5050565b600680546106ca906119de565b80601f01602080910402602001604051908101604052809291908181526020018280546106f6906119de565b80156107435780601f1061071857610100808354040283529160200191610743565b820191906000526020600020905b81548152906001019060200180831161072657829003601f168201915b505050505081565b6000600560009054906101000a900473ffffffffffffffffffffffffffffffffffffffff16905090565b6040518060400160405280600381526020017f4261740000000000000000000000000000000000000000000000000000000000815250805190602001208180519060200120036107cb57600780819055506108b6565b6040518060400160405280600481526020017f42616c6c000000000000000000000000000000000000000000000000000000008152508051906020012081805190602001200361082257600e6007819055506108b5565b6040518060400160405280600681526020017f5374756d70730000000000000000000000000000000000000000000000000000815250805190602001208180519060200120036108795760156007819055506108b4565b6040517f08c379a00000000000000000000000000000000000000000000000000000000081526004016108ab90611abe565b60405180910390fd5b5b5b50565b6060600480546108c8906119de565b80601f01602080910402602001604051908101604052809291908181526020018280546108f4906119de565b80156109415780601f1061091657610100808354040283529160200191610941565b820191906000526020600020905b81548152906001019060200180831161092457829003601f168201915b5050505050905090565b600080610956610b71565b905060006109648286610a67565b9050838110156109a9576040517f08c379a00000000000000000000000000000000000000000000000000000000081526004016109a090611b50565b60405180910390fd5b6109b68286868403610b79565b60019250505092915050565b6000806109cd610b71565b90506109da818585610d42565b600191505092915050565b6000811180156109f55750600481105b15610a385760086040517f08c379a0000000000000000000000000000000000000000000000000000000008152600401610a2f9190611c09565b60405180910390fd5b6001610a4333610641565b1015610a4e57600080fd5b610a6433600783610a5f9190611c2b565b61118c565b50565b6000600160008473ffffffffffffffffffffffffffffffffffffffff1673ffffffffffffffffffffffffffffffffffffffff16815260200190815260200160002060008373ffffffffffffffffffffffffffffffffffffffff1673ffffffffffffffffffffffffffffffffffffffff16815260200190815260200160002054905092915050565b610af6610fb8565b600073ffffffffffffffffffffffffffffffffffffffff168173ffffffffffffffffffffffffffffffffffffffff1603610b65576040517f08c379a0000000000000000000000000000000000000000000000000000000008152600401610b5c90611cdf565b60405180910390fd5b610b6e81611359565b50565b600033905090565b600073ffffffffffffffffffffffffffffffffffffffff168373ffffffffffffffffffffffffffffffffffffffff1603610be8576040517f08c379a0000000000000000000000000000000000000000000000000000000008152600401610bdf90611d71565b60405180910390fd5b600073ffffffffffffffffffffffffffffffffffffffff168273ffffffffffffffffffffffffffffffffffffffff1603610c57576040517f08c379a0000000000000000000000000000000000000000000000000000000008152600401610c4e90611e03565b60405180910390fd5b80600160008573ffffffffffffffffffffffffffffffffffffffff1673ffffffffffffffffffffffffffffffffffffffff16815260200190815260200160002060008473ffffffffffffffffffffffffffffffffffffffff1673ffffffffffffffffffffffffffffffffffffffff168152602001908152602001600020819055508173ffffffffffffffffffffffffffffffffffffffff168373ffffffffffffffffffffffffffffffffffffffff167f8c5be1e5ebec7d5bd14f71427d1e84f3dd0314c0f7b2291e5b200ac8c7c3b92583604051610d3591906116c8565b60405180910390a3505050565b600073ffffffffffffffffffffffffffffffffffffffff168373ffffffffffffffffffffffffffffffffffffffff1603610db1576040517f08c379a0000000000000000000000000000000000000000000000000000000008152600401610da890611e95565b60405180910390fd5b600073ffffffffffffffffffffffffffffffffffffffff168273ffffffffffffffffffffffffffffffffffffffff1603610e20576040517f08c379a0000000000000000000000000000000000000000000000000000000008152600401610e1790611f27565b60405180910390fd5b610e2b8383836114ab565b60008060008573ffffffffffffffffffffffffffffffffffffffff1673ffffffffffffffffffffffffffffffffffffffff16815260200190815260200160002054905081811015610eb1576040517f08c379a0000000000000000000000000000000000000000000000000000000008152600401610ea890611fb9565b60405180910390fd5b8181036000808673ffffffffffffffffffffffffffffffffffffffff1673ffffffffffffffffffffffffffffffffffffffff16815260200190815260200160002081905550816000808573ffffffffffffffffffffffffffffffffffffffff1673ffffffffffffffffffffffffffffffffffffffff168152602001908152602001600020600082825401925050819055508273ffffffffffffffffffffffffffffffffffffffff168473ffffffffffffffffffffffffffffffffffffffff167fddf252ad1be2c89b69c2b068fc378daa952ba7f163c4a11628f55a4df523b3ef84604051610f9f91906116c8565b60405180910390a3610fb28484846114b0565b50505050565b610fc0610b71565b73ffffffffffffffffffffffffffffffffffffffff16610fde61074b565b73ffffffffffffffffffffffffffffffffffffffff1614611034576040517f08c379a000000000000000000000000000000000000000000000000000000000815260040161102b90612025565b60405180910390fd5b565b600073ffffffffffffffffffffffffffffffffffffffff168273ffffffffffffffffffffffffffffffffffffffff16036110a5576040517f08c379a000000000000000000000000000000000000000000000000000000000815260040161109c90612091565b60405180910390fd5b6110b1600083836114ab565b80600260008282546110c39190611a3e565b92505081905550806000808473ffffffffffffffffffffffffffffffffffffffff1673ffffffffffffffffffffffffffffffffffffffff168152602001908152602001600020600082825401925050819055508173ffffffffffffffffffffffffffffffffffffffff16600073ffffffffffffffffffffffffffffffffffffffff167fddf252ad1be2c89b69c2b068fc378daa952ba7f163c4a11628f55a4df523b3ef8360405161117491906116c8565b60405180910390a3611188600083836114b0565b5050565b600073ffffffffffffffffffffffffffffffffffffffff168273ffffffffffffffffffffffffffffffffffffffff16036111fb576040517f08c379a00000000000000000000000000000000000000000000000000000000081526004016111f290612123565b60405180910390fd5b611207826000836114ab565b60008060008473ffffffffffffffffffffffffffffffffffffffff1673ffffffffffffffffffffffffffffffffffffffff1681526020019081526020016000205490508181101561128d576040517f08c379a0000000000000000000000000000000000000000000000000000000008152600401611284906121b5565b60405180910390fd5b8181036000808573ffffffffffffffffffffffffffffffffffffffff1673ffffffffffffffffffffffffffffffffffffffff1681526020019081526020016000208190555081600260008282540392505081905550600073ffffffffffffffffffffffffffffffffffffffff168373ffffffffffffffffffffffffffffffffffffffff167fddf252ad1be2c89b69c2b068fc378daa952ba7f163c4a11628f55a4df523b3ef8460405161134091906116c8565b60405180910390a3611354836000846114b0565b505050565b6000600560009054906101000a900473ffffffffffffffffffffffffffffffffffffffff16905081600560006101000a81548173ffffffffffffffffffffffffffffffffffffffff021916908373ffffffffffffffffffffffffffffffffffffffff1602179055508173ffffffffffffffffffffffffffffffffffffffff168173ffffffffffffffffffffffffffffffffffffffff167f8be0079c531659141344cd1fd0a4f28419497f9722a3daafe3b4186f6b6457e060405160405180910390a35050565b600061142b8484610a67565b90507fffffffffffffffffffffffffffffffffffffffffffffffffffffffffffffffff81146114a55781811015611497576040517f08c379a000000000000000000000000000000000000000000000000000000000815260040161148e90612221565b60405180910390fd5b6114a48484848403610b79565b5b50505050565b505050565b505050565b600081519050919050565b600082825260208201905092915050565b60005b838110156114ef5780820151818401526020810190506114d4565b60008484015250505050565b6000601f19601f8301169050919050565b6000611517826114b5565b61152181856114c0565b93506115318185602086016114d1565b61153a816114fb565b840191505092915050565b6000602082019050818103600083015261155f818461150c565b905092915050565b6000604051905090565b600080fd5b600080fd5b600073ffffffffffffffffffffffffffffffffffffffff82169050919050565b60006115a68261157b565b9050919050565b6115b68161159b565b81146115c157600080fd5b50565b6000813590506115d3816115ad565b92915050565b6000819050919050565b6115ec816115d9565b81146115f757600080fd5b50565b600081359050611609816115e3565b92915050565b6000806040838503121561162657611625611571565b5b6000611634858286016115c4565b9250506020611645858286016115fa565b9150509250929050565b60008115159050919050565b6116648161164f565b82525050565b600060208201905061167f600083018461165b565b92915050565b6000819050919050565b61169881611685565b82525050565b60006020820190506116b3600083018461168f565b92915050565b6116c2816115d9565b82525050565b60006020820190506116dd60008301846116b9565b92915050565b6000806000606084860312156116fc576116fb611571565b5b600061170a868287016115c4565b935050602061171b868287016115c4565b925050604061172c868287016115fa565b9150509250925092565b600060ff82169050919050565b61174c81611736565b82525050565b60006020820190506117676000830184611743565b92915050565b60006020828403121561178357611782611571565b5b6000611791848285016115fa565b91505092915050565b6000602082840312156117b0576117af611571565b5b60006117be848285016115c4565b91505092915050565b6117d08161159b565b82525050565b60006020820190506117eb60008301846117c7565b92915050565b600080fd5b600080fd5b7f4e487b7100000000000000000000000000000000000000000000000000000000600052604160045260246000fd5b611833826114fb565b810181811067ffffffffffffffff82111715611852576118516117fb565b5b80604052505050565b6000611865611567565b9050611871828261182a565b919050565b600067ffffffffffffffff821115611891576118906117fb565b5b61189a826114fb565b9050602081019050919050565b82818337600083830152505050565b60006118c96118c484611876565b61185b565b9050828152602081018484840111156118e5576118e46117f6565b5b6118f08482856118a7565b509392505050565b600082601f83011261190d5761190c6117f1565b5b813561191d8482602086016118b6565b91505092915050565b60006020828403121561193c5761193b611571565b5b600082013567ffffffffffffffff81111561195a57611959611576565b5b611966848285016118f8565b91505092915050565b6000806040838503121561198657611985611571565b5b6000611994858286016115c4565b92505060206119a5858286016115c4565b9150509250929050565b7f4e487b7100000000000000000000000000000000000000000000000000000000600052602260045260246000fd5b600060028204905060018216806119f657607f821691505b602082108103611a0957611a086119af565b5b50919050565b7f4e487b7100000000000000000000000000000000000000000000000000000000600052601160045260246000fd5b6000611a49826115d9565b9150611a54836115d9565b9250828201905080821115611a6c57611a6b611a0f565b5b92915050565b7f4974656d20646f65736e27742065786973742e00000000000000000000000000600082015250565b6000611aa86013836114c0565b9150611ab382611a72565b602082019050919050565b60006020820190508181036000830152611ad781611a9b565b9050919050565b7f45524332303a2064656372656173656420616c6c6f77616e63652062656c6f7760008201527f207a65726f000000000000000000000000000000000000000000000000000000602082015250565b6000611b3a6025836114c0565b9150611b4582611ade565b604082019050919050565b60006020820190508181036000830152611b6981611b2d565b9050919050565b60008190508160005260206000209050919050565b60008154611b92816119de565b611b9c81866114c0565b94506001821660008114611bb75760018114611bcd57611c00565b60ff198316865281151560200286019350611c00565b611bd685611b70565b60005b83811015611bf857815481890152600182019150602081019050611bd9565b808801955050505b50505092915050565b60006020820190508181036000830152611c238184611b85565b905092915050565b6000611c36826115d9565b9150611c41836115d9565b9250828202611c4f816115d9565b91508282048414831517611c6657611c65611a0f565b5b5092915050565b7f4f776e61626c653a206e6577206f776e657220697320746865207a65726f206160008201527f6464726573730000000000000000000000000000000000000000000000000000602082015250565b6000611cc96026836114c0565b9150611cd482611c6d565b604082019050919050565b60006020820190508181036000830152611cf881611cbc565b9050919050565b7f45524332303a20617070726f76652066726f6d20746865207a65726f2061646460008201527f7265737300000000000000000000000000000000000000000000000000000000602082015250565b6000611d5b6024836114c0565b9150611d6682611cff565b604082019050919050565b60006020820190508181036000830152611d8a81611d4e565b9050919050565b7f45524332303a20617070726f766520746f20746865207a65726f20616464726560008201527f7373000000000000000000000000000000000000000000000000000000000000602082015250565b6000611ded6022836114c0565b9150611df882611d91565b604082019050919050565b60006020820190508181036000830152611e1c81611de0565b9050919050565b7f45524332303a207472616e736665722066726f6d20746865207a65726f20616460008201527f6472657373000000000000000000000000000000000000000000000000000000602082015250565b6000611e7f6025836114c0565b9150611e8a82611e23565b604082019050919050565b60006020820190508181036000830152611eae81611e72565b9050919050565b7f45524332303a207472616e7366657220746f20746865207a65726f206164647260008201527f6573730000000000000000000000000000000000000000000000000000000000602082015250565b6000611f116023836114c0565b9150611f1c82611eb5565b604082019050919050565b60006020820190508181036000830152611f4081611f04565b9050919050565b7f45524332303a207472616e7366657220616d6f756e742065786365656473206260008201527f616c616e63650000000000000000000000000000000000000000000000000000602082015250565b6000611fa36026836114c0565b9150611fae82611f47565b604082019050919050565b60006020820190508181036000830152611fd281611f96565b9050919050565b7f4f776e61626c653a2063616c6c6572206973206e6f7420746865206f776e6572600082015250565b600061200f6020836114c0565b915061201a82611fd9565b602082019050919050565b6000602082019050818103600083015261203e81612002565b9050919050565b7f45524332303a206d696e7420746f20746865207a65726f206164647265737300600082015250565b600061207b601f836114c0565b915061208682612045565b602082019050919050565b600060208201905081810360008301526120aa8161206e565b9050919050565b7f45524332303a206275726e2066726f6d20746865207a65726f2061646472657360008201527f7300000000000000000000000000000000000000000000000000000000000000602082015250565b600061210d6021836114c0565b9150612118826120b1565b604082019050919050565b6000602082019050818103600083015261213c81612100565b9050919050565b7f45524332303a206275726e20616d6f756e7420657863656564732062616c616e60008201527f6365000000000000000000000000000000000000000000000000000000000000602082015250565b600061219f6022836114c0565b91506121aa82612143565b604082019050919050565b600060208201905081810360008301526121ce81612192565b9050919050565b7f45524332303a20696e73756666696369656e7420616c6c6f77616e6365000000600082015250565b600061220b601d836114c0565b9150612216826121d5565b602082019050919050565b6000602082019050818103600083015261223a816121fe565b905091905056fea26469706673582212205299e09643f3fcd889163e52f26a346db4ca0ed31874c20f4627751eb3d13e9664736f6c63430008120033596f7520686176652074686520666f6c6c6f77696e67206974656d7320696e20796f75722073686f7020776869636820796f75206172652061626c6520746f2072656465656d3a20312e4261742c20322e42616c6c2c20332e5374756d70734f6e6c792033206974656d7320617661696c61626c6520696e207468652073686f70",
  "linkReferences": {},
  "deployedLinkReferences": {}
}