{
  "_format": "hh-sol-artifact-1",
  "contractName": "DegenToken",
  "sourceName": "contracts/DegenToken.sol",
  "abi": [
    {
      "inputs": [],
      "stateMutability": "nonpayable",
      "type": "constructor"
    },
    {
      "anonymous": false,
      "inputs": [
        {
          "indexed": true,
          "internalType": "address",
          "name": "owner",
          "type": "address"
        },
        {
          "indexed": true,
          "internalType": "address",
          "name": "spender",
          "type": "address"
        },
        {
          "indexed": false,
          "internalType": "uint256",
          "name": "value",
          "type": "uint256"
        }
      ],
      "name": "Approval",
      "type": "event"
    },
    {
      "anonymous": false,
      "inputs": [
        {
          "indexed": true,
          "internalType": "address",
          "name": "previousOwner",
          "type": "address"
        },
        {
          "indexed": true,
          "internalType": "address",
          "name": "newOwner",
          "type": "address"
        }
      ],
      "name": "OwnershipTransferred",
      "type": "event"
    },
    {
      "anonymous": false,
      "inputs": [
        {
          "indexed": true,
          "internalType": "address",
          "name": "from",
          "type": "address"
        },
        {
          "indexed": true,
          "internalType": "address",
          "name": "to",
          "type": "address"
        },
        {
          "indexed": false,
          "internalType": "uint256",
          "name": "value",
          "type": "uint256"
        }
      ],
      "name": "Transfer",
      "type": "event"
    },
    {
      "inputs": [
        {
          "internalType": "string",
          "name": "_name",
          "type": "string"
        }
      ],
      "name": "ReturnCode",
      "outputs": [
        {
          "internalType": "uint256",
          "name": "",
          "type": "uint256"
        },
        {
          "internalType": "uint256",
          "name": "",
          "type": "uint256"
        }
      ],
      "stateMutability": "payable",
      "type": "function"
    },
    {
      "inputs": [
        {
          "internalType": "address",
          "name": "owner",
          "type": "address"
        },
        {
          "internalType": "address",
          "name": "spender",
          "type": "address"
        }
      ],
      "name": "allowance",
      "outputs": [
        {
          "internalType": "uint256",
          "name": "",
          "type": "uint256"
        }
      ],
      "stateMutability": "view",
      "type": "function"
    },
    {
      "inputs": [
        {
          "internalType": "address",
          "name": "spender",
          "type": "address"
        },
        {
          "internalType": "uint256",
          "name": "amount",
          "type": "uint256"
        }
      ],
      "name": "approve",
      "outputs": [
        {
          "internalType": "bool",
          "name": "",
          "type": "bool"
        }
      ],
      "stateMutability": "nonpayable",
      "type": "function"
    },
    {
      "inputs": [
        {
          "internalType": "address",
          "name": "account",
          "type": "address"
        }
      ],
      "name": "balanceOf",
      "outputs": [
        {
          "internalType": "uint256",
          "name": "",
          "type": "uint256"
        }
      ],
      "stateMutability": "view",
      "type": "function"
    },
    {
      "inputs": [
        {
          "internalType": "uint256",
          "name": "amount",
          "type": "uint256"
        }
      ],
      "name": "burn",
      "outputs": [],
      "stateMutability": "nonpayable",
      "type": "function"
    },
    {
      "inputs": [
        {
          "internalType": "address",
          "name": "account",
          "type": "address"
        },
        {
          "internalType": "uint256",
          "name": "amount",
          "type": "uint256"
        }
      ],
      "name": "burnFrom",
      "outputs": [],
      "stateMutability": "nonpayable",
      "type": "function"
    },
    {
      "inputs": [],
      "name": "decimals",
      "outputs": [
        {
          "internalType": "uint8",
          "name": "",
          "type": "uint8"
        }
      ],
      "stateMutability": "view",
      "type": "function"
    },
    {
      "inputs": [
        {
          "internalType": "address",
          "name": "spender",
          "type": "address"
        },
        {
          "internalType": "uint256",
          "name": "subtractedValue",
          "type": "uint256"
        }
      ],
      "name": "decreaseAllowance",
      "outputs": [
        {
          "internalType": "bool",
          "name": "",
          "type": "bool"
        }
      ],
      "stateMutability": "nonpayable",
      "type": "function"
    },
    {
      "inputs": [
        {
          "internalType": "address",
          "name": "spender",
          "type": "address"
        },
        {
          "internalType": "uint256",
          "name": "addedValue",
          "type": "uint256"
        }
      ],
      "name": "increaseAllowance",
      "outputs": [
        {
          "internalType": "bool",
          "name": "",
          "type": "bool"
        }
      ],
      "stateMutability": "nonpayable",
      "type": "function"
    },
    {
      "inputs": [
        {
          "internalType": "address",
          "name": "to",
          "type": "address"
        },
        {
          "internalType": "uint256",
          "name": "amount",
          "type": "uint256"
        }
      ],
      "name": "mint",
      "outputs": [],
      "stateMutability": "nonpayable",
      "type": "function"
    },
    {
      "inputs": [],
      "name": "name",
      "outputs": [
        {
          "internalType": "string",
          "name": "",
          "type": "string"
        }
      ],
      "stateMutability": "view",
      "type": "function"
    },
    {
      "inputs": [],
      "name": "owner",
      "outputs": [
        {
          "internalType": "address",
          "name": "",
          "type": "address"
        }
      ],
      "stateMutability": "view",
      "type": "function"
    },
    {
      "inputs": [
        {
          "internalType": "uint256",
          "name": "item_serial",
          "type": "uint256"
        }
      ],
      "name": "redeem",
      "outputs": [],
      "stateMutability": "payable",
      "type": "function"
    },
    {
      "inputs": [],
      "name": "redeem_shop",
      "outputs": [
        {
          "internalType": "string",
          "name": "",
          "type": "string"
        }
      ],
      "stateMutability": "view",
      "type": "function"
    },
    {
      "inputs": [],
      "name": "renounceOwnership",
      "outputs": [],
      "stateMutability": "nonpayable",
      "type": "function"
    },
    {
      "inputs": [],
      "name": "symbol",
      "outputs": [
        {
          "internalType": "string",
          "name": "",
          "type": "string"
        }
      ],
      "stateMutability": "view",
      "type": "function"
    },
    {
      "inputs": [],
      "name": "totalSupply",
      "outputs": [
        {
          "internalType": "uint256",
          "name": "",
          "type": "uint256"
        }
      ],
      "stateMutability": "view",
      "type": "function"
    },
    {
      "inputs": [
        {
          "internalType": "address",
          "name": "to",
          "type": "address"
        },
        {
          "internalType": "uint256",
          "name": "amount",
          "type": "uint256"
        }
      ],
      "name": "transfer",
      "outputs": [
        {
          "internalType": "bool",
          "name": "",
          "type": "bool"
        }
      ],
      "stateMutability": "nonpayable",
      "type": "function"
    },
    {
      "inputs": [
        {
          "internalType": "address",
          "name": "from",
          "type": "address"
        },
        {
          "internalType": "address",
          "name": "to",
          "type": "address"
        },
        {
          "internalType": "uint256",
          "name": "amount",
          "type": "uint256"
        }
      ],
      "name": "transferFrom",
      "outputs": [
        {
          "internalType": "bool",
          "name": "",
          "type": "bool"
        }
      ],
      "stateMutability": "nonpayable",
      "type": "function"
    },
    {
      "inputs": [
        {
          "internalType": "address",
          "name": "newOwner",
          "type": "address"
        }
      ],
      "name": "transferOwnership",
      "outputs": [],
      "stateMutability": "nonpayable",
      "type": "function"
    }
  ],
  "bytecode": "0x60806040526040518060600160405280602281526020016200289b60229139600790816200002e919062000468565b503480156200003c57600080fd5b506040518060400160405280600581526020017f446567656e0000000000000000000000000000000000000000000000000000008152506040518060400160405280600381526020017f44474e00000000000000000000000000000000000000000000000000000000008152508160039081620000ba919062000468565b508060049081620000cc919062000468565b505050620000ef620000e36200012060201b60201c565b6200012860201b60201c565b6040518060800160405280605f81526020016200283c605f91396006908162000119919062000468565b506200054f565b600033905090565b6000600560009054906101000a900473ffffffffffffffffffffffffffffffffffffffff16905081600560006101000a81548173ffffffffffffffffffffffffffffffffffffffff021916908373ffffffffffffffffffffffffffffffffffffffff1602179055508173ffffffffffffffffffffffffffffffffffffffff168173ffffffffffffffffffffffffffffffffffffffff167f8be0079c531659141344cd1fd0a4f28419497f9722a3daafe3b4186f6b6457e060405160405180910390a35050565b600081519050919050565b7f4e487b7100000000000000000000000000000000000000000000000000000000600052604160045260246000fd5b7f4e487b7100000000000000000000000000000000000000000000000000000000600052602260045260246000fd5b600060028204905060018216806200027057607f821691505b60208210810362000286576200028562000228565b5b50919050565b60008190508160005260206000209050919050565b60006020601f8301049050919050565b600082821b905092915050565b600060088302620002f07fffffffffffffffffffffffffffffffffffffffffffffffffffffffffffffffff82620002b1565b620002fc8683620002b1565b95508019841693508086168417925050509392505050565b6000819050919050565b6000819050919050565b600062000349620003436200033d8462000314565b6200031e565b62000314565b9050919050565b6000819050919050565b620003658362000328565b6200037d620003748262000350565b848454620002be565b825550505050565b600090565b6200039462000385565b620003a18184846200035a565b505050565b5b81811015620003c957620003bd6000826200038a565b600181019050620003a7565b5050565b601f8211156200041857620003e2816200028c565b620003ed84620002a1565b81016020851015620003fd578190505b620004156200040c85620002a1565b830182620003a6565b50505b505050565b600082821c905092915050565b60006200043d600019846008026200041d565b1980831691505092915050565b60006200045883836200042a565b9150826002028217905092915050565b6200047382620001ee565b67ffffffffffffffff8111156200048f576200048e620001f9565b5b6200049b825462000257565b620004a8828285620003cd565b600060209050601f831160018114620004e05760008415620004cb578287015190505b620004d785826200044a565b86555062000547565b601f198416620004f0866200028c565b60005b828110156200051a57848901518255600182019150602085019450602081019050620004f3565b868310156200053a578489015162000536601f8916826200042a565b8355505b6001600288020188555050505b505050505050565b6122dd806200055f6000396000f3fe60806040526004361061011f5760003560e01c806379cc6790116100a0578063a457c2d711610064578063a457c2d7146103dd578063a9059cbb1461041a578063db006a7514610457578063dd62ed3e14610473578063f2fde38b146104b05761011f565b806379cc6790146103025780638ab881071461032b5780638da5cb5b14610356578063902e63971461038157806395d89b41146103b25761011f565b806339509351116100e7578063395093511461021f57806340c10f191461025c57806342966c681461028557806370a08231146102ae578063715018a6146102eb5761011f565b806306fdde0314610124578063095ea7b31461014f57806318160ddd1461018c57806323b872dd146101b7578063313ce567146101f4575b600080fd5b34801561013057600080fd5b506101396104d9565b6040516101469190611556565b60405180910390f35b34801561015b57600080fd5b5061017660048036038101906101719190611620565b61056b565b604051610183919061167b565b60405180910390f35b34801561019857600080fd5b506101a161058e565b6040516101ae91906116a5565b60405180910390f35b3480156101c357600080fd5b506101de60048036038101906101d991906116c0565b610598565b6040516101eb919061167b565b60405180910390f35b34801561020057600080fd5b506102096105c7565b604051610216919061172f565b60405180910390f35b34801561022b57600080fd5b5061024660048036038101906102419190611620565b6105d0565b604051610253919061167b565b60405180910390f35b34801561026857600080fd5b50610283600480360381019061027e9190611620565b610607565b005b34801561029157600080fd5b506102ac60048036038101906102a7919061174a565b61061d565b005b3480156102ba57600080fd5b506102d560048036038101906102d09190611777565b610631565b6040516102e291906116a5565b60405180910390f35b3480156102f757600080fd5b50610300610679565b005b34801561030e57600080fd5b5061032960048036038101906103249190611620565b61068d565b005b34801561033757600080fd5b506103406106ad565b60405161034d9190611556565b60405180910390f35b34801561036257600080fd5b5061036b61073b565b60405161037891906117b3565b60405180910390f35b61039b60048036038101906103969190611903565b610765565b6040516103a992919061194c565b60405180910390f35b3480156103be57600080fd5b506103c76108b0565b6040516103d49190611556565b60405180910390f35b3480156103e957600080fd5b5061040460048036038101906103ff9190611620565b610942565b604051610411919061167b565b60405180910390f35b34801561042657600080fd5b50610441600480360381019061043c9190611620565b6109b9565b60405161044e919061167b565b60405180910390f35b610471600480360381019061046c919061174a565b6109dc565b005b34801561047f57600080fd5b5061049a60048036038101906104959190611975565b610a78565b6040516104a791906116a5565b60405180910390f35b3480156104bc57600080fd5b506104d760048036038101906104d29190611777565b610aff565b005b6060600380546104e8906119e4565b80601f0160208091040260200160405190810160405280929190818152602001828054610514906119e4565b80156105615780601f1061053657610100808354040283529160200191610561565b820191906000526020600020905b81548152906001019060200180831161054457829003601f168201915b5050505050905090565b600080610576610b82565b9050610583818585610b8a565b600191505092915050565b6000600254905090565b6000806105a3610b82565b90506105b0858285610d53565b6105bb858585610ddf565b60019150509392505050565b60006012905090565b6000806105db610b82565b90506105fc8185856105ed8589610a78565b6105f79190611a44565b610b8a565b600191505092915050565b61060f611055565b61061982826110d3565b5050565b61062e610628610b82565b82611229565b50565b60008060008373ffffffffffffffffffffffffffffffffffffffff1673ffffffffffffffffffffffffffffffffffffffff168152602001908152602001600020549050919050565b610681611055565b61068b60006113f6565b565b61069f82610699610b82565b83610d53565b6106a98282611229565b5050565b600680546106ba906119e4565b80601f01602080910402602001604051908101604052809291908181526020018280546106e6906119e4565b80156107335780601f1061070857610100808354040283529160200191610733565b820191906000526020600020905b81548152906001019060200180831161071657829003601f168201915b505050505081565b6000600560009054906101000a900473ffffffffffffffffffffffffffffffffffffffff16905090565b6000806040518060400160405280600381526020017f4261740000000000000000000000000000000000000000000000000000000000815250805190602001208380519060200120036107c05760016103e9915091506108ab565b6040518060400160405280600481526020017f42616c6c00000000000000000000000000000000000000000000000000000000815250805190602001208380519060200120036108185760026103eb915091506108ab565b6040518060400160405280600681526020017f5374756d70730000000000000000000000000000000000000000000000000000815250805190602001208380519060200120036108705760036103e8915091506108ab565b6040517f08c379a00000000000000000000000000000000000000000000000000000000081526004016108a290611ac4565b60405180910390fd5b915091565b6060600480546108bf906119e4565b80601f01602080910402602001604051908101604052809291908181526020018280546108eb906119e4565b80156109385780601f1061090d57610100808354040283529160200191610938565b820191906000526020600020905b81548152906001019060200180831161091b57829003601f168201915b5050505050905090565b60008061094d610b82565b9050600061095b8286610a78565b9050838110156109a0576040517f08c379a000000000000000000000000000000000000000000000000000000000815260040161099790611b56565b60405180910390fd5b6109ad8286868403610b8a565b60019250505092915050565b6000806109c4610b82565b90506109d1818585610ddf565b600191505092915050565b6000811180156109ec5750600481105b15610a2f5760076040517f08c379a0000000000000000000000000000000000000000000000000000000008152600401610a269190611c0f565b60405180910390fd5b6103e9610a3b33610631565b1015610a4657600080fd5b610a75336103e76005600785610a5c9190611c31565b610a669190611ca2565b610a709190611a44565b611229565b50565b6000600160008473ffffffffffffffffffffffffffffffffffffffff1673ffffffffffffffffffffffffffffffffffffffff16815260200190815260200160002060008373ffffffffffffffffffffffffffffffffffffffff1673ffffffffffffffffffffffffffffffffffffffff16815260200190815260200160002054905092915050565b610b07611055565b600073ffffffffffffffffffffffffffffffffffffffff168173ffffffffffffffffffffffffffffffffffffffff1603610b76576040517f08c379a0000000000000000000000000000000000000000000000000000000008152600401610b6d90611d45565b60405180910390fd5b610b7f816113f6565b50565b600033905090565b600073ffffffffffffffffffffffffffffffffffffffff168373ffffffffffffffffffffffffffffffffffffffff1603610bf9576040517f08c379a0000000000000000000000000000000000000000000000000000000008152600401610bf090611dd7565b60405180910390fd5b600073ffffffffffffffffffffffffffffffffffffffff168273ffffffffffffffffffffffffffffffffffffffff1603610c68576040517f08c379a0000000000000000000000000000000000000000000000000000000008152600401610c5f90611e69565b60405180910390fd5b80600160008573ffffffffffffffffffffffffffffffffffffffff1673ffffffffffffffffffffffffffffffffffffffff16815260200190815260200160002060008473ffffffffffffffffffffffffffffffffffffffff1673ffffffffffffffffffffffffffffffffffffffff168152602001908152602001600020819055508173ffffffffffffffffffffffffffffffffffffffff168373ffffffffffffffffffffffffffffffffffffffff167f8c5be1e5ebec7d5bd14f71427d1e84f3dd0314c0f7b2291e5b200ac8c7c3b92583604051610d4691906116a5565b60405180910390a3505050565b6000610d5f8484610a78565b90507fffffffffffffffffffffffffffffffffffffffffffffffffffffffffffffffff8114610dd95781811015610dcb576040517f08c379a0000000000000000000000000000000000000000000000000000000008152600401610dc290611ed5565b60405180910390fd5b610dd88484848403610b8a565b5b50505050565b600073ffffffffffffffffffffffffffffffffffffffff168373ffffffffffffffffffffffffffffffffffffffff1603610e4e576040517f08c379a0000000000000000000000000000000000000000000000000000000008152600401610e4590611f67565b60405180910390fd5b600073ffffffffffffffffffffffffffffffffffffffff168273ffffffffffffffffffffffffffffffffffffffff1603610ebd576040517f08c379a0000000000000000000000000000000000000000000000000000000008152600401610eb490611ff9565b60405180910390fd5b610ec88383836114bc565b60008060008573ffffffffffffffffffffffffffffffffffffffff1673ffffffffffffffffffffffffffffffffffffffff16815260200190815260200160002054905081811015610f4e576040517f08c379a0000000000000000000000000000000000000000000000000000000008152600401610f459061208b565b60405180910390fd5b8181036000808673ffffffffffffffffffffffffffffffffffffffff1673ffffffffffffffffffffffffffffffffffffffff16815260200190815260200160002081905550816000808573ffffffffffffffffffffffffffffffffffffffff1673ffffffffffffffffffffffffffffffffffffffff168152602001908152602001600020600082825401925050819055508273ffffffffffffffffffffffffffffffffffffffff168473ffffffffffffffffffffffffffffffffffffffff167fddf252ad1be2c89b69c2b068fc378daa952ba7f163c4a11628f55a4df523b3ef8460405161103c91906116a5565b60405180910390a361104f8484846114c1565b50505050565b61105d610b82565b73ffffffffffffffffffffffffffffffffffffffff1661107b61073b565b73ffffffffffffffffffffffffffffffffffffffff16146110d1576040517f08c379a00000000000000000000000000000000000000000000000000000000081526004016110c8906120f7565b60405180910390fd5b565b600073ffffffffffffffffffffffffffffffffffffffff168273ffffffffffffffffffffffffffffffffffffffff1603611142576040517f08c379a000000000000000000000000000000000000000000000000000000000815260040161113990612163565b60405180910390fd5b61114e600083836114bc565b80600260008282546111609190611a44565b92505081905550806000808473ffffffffffffffffffffffffffffffffffffffff1673ffffffffffffffffffffffffffffffffffffffff168152602001908152602001600020600082825401925050819055508173ffffffffffffffffffffffffffffffffffffffff16600073ffffffffffffffffffffffffffffffffffffffff167fddf252ad1be2c89b69c2b068fc378daa952ba7f163c4a11628f55a4df523b3ef8360405161121191906116a5565b60405180910390a3611225600083836114c1565b5050565b600073ffffffffffffffffffffffffffffffffffffffff168273ffffffffffffffffffffffffffffffffffffffff1603611298576040517f08c379a000000000000000000000000000000000000000000000000000000000815260040161128f906121f5565b60405180910390fd5b6112a4826000836114bc565b60008060008473ffffffffffffffffffffffffffffffffffffffff1673ffffffffffffffffffffffffffffffffffffffff1681526020019081526020016000205490508181101561132a576040517f08c379a000000000000000000000000000000000000000000000000000000000815260040161132190612287565b60405180910390fd5b8181036000808573ffffffffffffffffffffffffffffffffffffffff1673ffffffffffffffffffffffffffffffffffffffff1681526020019081526020016000208190555081600260008282540392505081905550600073ffffffffffffffffffffffffffffffffffffffff168373ffffffffffffffffffffffffffffffffffffffff167fddf252ad1be2c89b69c2b068fc378daa952ba7f163c4a11628f55a4df523b3ef846040516113dd91906116a5565b60405180910390a36113f1836000846114c1565b505050565b6000600560009054906101000a900473ffffffffffffffffffffffffffffffffffffffff16905081600560006101000a81548173ffffffffffffffffffffffffffffffffffffffff021916908373ffffffffffffffffffffffffffffffffffffffff1602179055508173ffffffffffffffffffffffffffffffffffffffff168173ffffffffffffffffffffffffffffffffffffffff167f8be0079c531659141344cd1fd0a4f28419497f9722a3daafe3b4186f6b6457e060405160405180910390a35050565b505050565b505050565b600081519050919050565b600082825260208201905092915050565b60005b838110156115005780820151818401526020810190506114e5565b60008484015250505050565b6000601f19601f8301169050919050565b6000611528826114c6565b61153281856114d1565b93506115428185602086016114e2565b61154b8161150c565b840191505092915050565b60006020820190508181036000830152611570818461151d565b905092915050565b6000604051905090565b600080fd5b600080fd5b600073ffffffffffffffffffffffffffffffffffffffff82169050919050565b60006115b78261158c565b9050919050565b6115c7816115ac565b81146115d257600080fd5b50565b6000813590506115e4816115be565b92915050565b6000819050919050565b6115fd816115ea565b811461160857600080fd5b50565b60008135905061161a816115f4565b92915050565b6000806040838503121561163757611636611582565b5b6000611645858286016115d5565b92505060206116568582860161160b565b9150509250929050565b60008115159050919050565b61167581611660565b82525050565b6000602082019050611690600083018461166c565b92915050565b61169f816115ea565b82525050565b60006020820190506116ba6000830184611696565b92915050565b6000806000606084860312156116d9576116d8611582565b5b60006116e7868287016115d5565b93505060206116f8868287016115d5565b92505060406117098682870161160b565b9150509250925092565b600060ff82169050919050565b61172981611713565b82525050565b60006020820190506117446000830184611720565b92915050565b6000602082840312156117605761175f611582565b5b600061176e8482850161160b565b91505092915050565b60006020828403121561178d5761178c611582565b5b600061179b848285016115d5565b91505092915050565b6117ad816115ac565b82525050565b60006020820190506117c860008301846117a4565b92915050565b600080fd5b600080fd5b7f4e487b7100000000000000000000000000000000000000000000000000000000600052604160045260246000fd5b6118108261150c565b810181811067ffffffffffffffff8211171561182f5761182e6117d8565b5b80604052505050565b6000611842611578565b905061184e8282611807565b919050565b600067ffffffffffffffff82111561186e5761186d6117d8565b5b6118778261150c565b9050602081019050919050565b82818337600083830152505050565b60006118a66118a184611853565b611838565b9050828152602081018484840111156118c2576118c16117d3565b5b6118cd848285611884565b509392505050565b600082601f8301126118ea576118e96117ce565b5b81356118fa848260208601611893565b91505092915050565b60006020828403121561191957611918611582565b5b600082013567ffffffffffffffff81111561193757611936611587565b5b611943848285016118d5565b91505092915050565b60006040820190506119616000830185611696565b61196e6020830184611696565b9392505050565b6000806040838503121561198c5761198b611582565b5b600061199a858286016115d5565b92505060206119ab858286016115d5565b9150509250929050565b7f4e487b7100000000000000000000000000000000000000000000000000000000600052602260045260246000fd5b600060028204905060018216806119fc57607f821691505b602082108103611a0f57611a0e6119b5565b5b50919050565b7f4e487b7100000000000000000000000000000000000000000000000000000000600052601160045260246000fd5b6000611a4f826115ea565b9150611a5a836115ea565b9250828201905080821115611a7257611a71611a15565b5b92915050565b7f4974656d20646f65736e27742065786973742e00000000000000000000000000600082015250565b6000611aae6013836114d1565b9150611ab982611a78565b602082019050919050565b60006020820190508181036000830152611add81611aa1565b9050919050565b7f45524332303a2064656372656173656420616c6c6f77616e63652062656c6f7760008201527f207a65726f000000000000000000000000000000000000000000000000000000602082015250565b6000611b406025836114d1565b9150611b4b82611ae4565b604082019050919050565b60006020820190508181036000830152611b6f81611b33565b9050919050565b60008190508160005260206000209050919050565b60008154611b98816119e4565b611ba281866114d1565b94506001821660008114611bbd5760018114611bd357611c06565b60ff198316865281151560200286019350611c06565b611bdc85611b76565b60005b83811015611bfe57815481890152600182019150602081019050611bdf565b808801955050505b50505092915050565b60006020820190508181036000830152611c298184611b8b565b905092915050565b6000611c3c826115ea565b9150611c47836115ea565b9250828202611c55816115ea565b91508282048414831517611c6c57611c6b611a15565b5b5092915050565b7f4e487b7100000000000000000000000000000000000000000000000000000000600052601260045260246000fd5b6000611cad826115ea565b9150611cb8836115ea565b925082611cc857611cc7611c73565b5b828206905092915050565b7f4f776e61626c653a206e6577206f776e657220697320746865207a65726f206160008201527f6464726573730000000000000000000000000000000000000000000000000000602082015250565b6000611d2f6026836114d1565b9150611d3a82611cd3565b604082019050919050565b60006020820190508181036000830152611d5e81611d22565b9050919050565b7f45524332303a20617070726f76652066726f6d20746865207a65726f2061646460008201527f7265737300000000000000000000000000000000000000000000000000000000602082015250565b6000611dc16024836114d1565b9150611dcc82611d65565b604082019050919050565b60006020820190508181036000830152611df081611db4565b9050919050565b7f45524332303a20617070726f766520746f20746865207a65726f20616464726560008201527f7373000000000000000000000000000000000000000000000000000000000000602082015250565b6000611e536022836114d1565b9150611e5e82611df7565b604082019050919050565b60006020820190508181036000830152611e8281611e46565b9050919050565b7f45524332303a20696e73756666696369656e7420616c6c6f77616e6365000000600082015250565b6000611ebf601d836114d1565b9150611eca82611e89565b602082019050919050565b60006020820190508181036000830152611eee81611eb2565b9050919050565b7f45524332303a207472616e736665722066726f6d20746865207a65726f20616460008201527f6472657373000000000000000000000000000000000000000000000000000000602082015250565b6000611f516025836114d1565b9150611f5c82611ef5565b604082019050919050565b60006020820190508181036000830152611f8081611f44565b9050919050565b7f45524332303a207472616e7366657220746f20746865207a65726f206164647260008201527f6573730000000000000000000000000000000000000000000000000000000000602082015250565b6000611fe36023836114d1565b9150611fee82611f87565b604082019050919050565b6000602082019050818103600083015261201281611fd6565b9050919050565b7f45524332303a207472616e7366657220616d6f756e742065786365656473206260008201527f616c616e63650000000000000000000000000000000000000000000000000000602082015250565b60006120756026836114d1565b915061208082612019565b604082019050919050565b600060208201905081810360008301526120a481612068565b9050919050565b7f4f776e61626c653a2063616c6c6572206973206e6f7420746865206f776e6572600082015250565b60006120e16020836114d1565b91506120ec826120ab565b602082019050919050565b60006020820190508181036000830152612110816120d4565b9050919050565b7f45524332303a206d696e7420746f20746865207a65726f206164647265737300600082015250565b600061214d601f836114d1565b915061215882612117565b602082019050919050565b6000602082019050818103600083015261217c81612140565b9050919050565b7f45524332303a206275726e2066726f6d20746865207a65726f2061646472657360008201527f7300000000000000000000000000000000000000000000000000000000000000602082015250565b60006121df6021836114d1565b91506121ea82612183565b604082019050919050565b6000602082019050818103600083015261220e816121d2565b9050919050565b7f45524332303a206275726e20616d6f756e7420657863656564732062616c616e60008201527f6365000000000000000000000000000000000000000000000000000000000000602082015250565b60006122716022836114d1565b915061227c82612215565b604082019050919050565b600060208201905081810360008301526122a081612264565b905091905056fea2646970667358221220fe946fad81b8c716eb8f45fbdb819ea884df7d8a6fe46efaa0e4f63f1dbd827664736f6c63430008120033596f7520686176652074686520666f6c6c6f77696e67206974656d7320696e20796f75722073686f7020776869636820796f75206172652061626c6520746f2072656465656d3a20312e4261742c20322e42616c6c2c20332e5374756d70734f6e6c792033206974656d7320617661696c61626c6520696e207468652073686f70",
  "linkReferences": {},
  "deployedLinkReferences": {}
}